:020000040800F2
:1000000000080020A1CB000891130108A1130108EA
:10001000B1130108C1130108D1130108A186050815
:10002000A1860508A1860508A1860508A186050800
:10003000A1860508A1860508B18605085181050835
:10004000A186050861130108A1860508A186050897
:10005000A1860508A1860508A1860508A1860508D0
:10006000A1860508A1860508A1860508D15B0508BB
:10007000015C0508315C0508615C0508915C0508B8
:10008000C15C0508F15C0508C1120108C1630508DF
:10009000E16305080164050821640508E11201080F
:1000A000517F0508A1860508A1860508A1860508D7
:1000B00031130108317F050801130108A1860508E5
:1000C000A1860508416B0508516C0508A186050845
:1000D000A1860508F182050811830508318305080A
:1000E000A1860508A1860508A1860508A186050840
:1000F000A1860508A1860508A1860508215D0508D9
:10010000A1860508A1860508A1860508A18605081F
:100110005183050871830508A1860508A186050895
:10012000515D0508815D0508B15D0508E15D0508C3
:10013000115E0508A1860508A18605084164050829
:100140006164050881640508A1640508F179050862
:10015000415E0508715E0508A15E050891830508EA
:10016000A1860508A1860508A1860508A1860508BF
:10017000A1860508A1860508A1860508A1860508AF
:10018000A1860508A1860508A1860508A18605089F
:10019000A1860508A1860508A1860508A18605088F
:1001A000A1860508A1860508A1860508A18605087F
:1001B000A1860508A1860508A1860508A18605086F
:1001C0002DE9F04F2DED068B0446F5B0014683482E
:1001D0005CF026FF20468249814C65F039FE0026FE
:1001E00034AD48B1402E08D045F826002146002005
:1001F00065F02EFE0136F4E70EB1002702E07948E3
:1002000002F01DB9349CE55D65B163F0D9FA28446C
:10021000437803F00303012B349B08BF2035DD55E1
:100220000137EFE7704BDFF82482D3F80090A9453F
:1002300011DD2B0108EB0302D76857B153F8081002
:1002400020460DF0F1F820B934A93046B84702F045
:10025000FDB80135EBE7654920460DF0E5F838BB00
:100260004CF006FE9FED628A60EE087A17EE900A67
:100270000CF06AF802460B465E485CF0D1FE48F08E
:10028000F7FA60EE087A17EE900A0CF05DF8024675
:100290000B4659485CF0C4FE48F0CAFB60EE087A91
:1002A00017EE900A0CF050F802460B4653480DE04A
:1002B000534920460DF0B8F860B94CF0F9F910EE4A
:1002C000100A0CF041F802464E480B465CF0A8FEBE
:1002D00002F0BCB84C4920460DF0A6F888B91BA91D
:1002E00059F06EFA044659F003FA014647485CF0AB
:1002F00097FE214646485CF093FE1B99454802F064
:10030000A3B8454920460DF08FF8002849D143484D
:10031000434E9FED448A444D5CF082FE43485CF0BE
:100320007FFE58F07DFE0446204662F0B1FFD4F80F
:1003300024802A6894ED097AB36A9B1A07EE903AF2
:10034000B8EE477AF8EE677A27EE087A0746C7EEE6
:10035000277A17EE900A0BF0F7FFCDE90478CDE984
:100360000601E36C0393A369029394F82020304BB9
:10037000304853F82230019394F82230013B009327
:10038000D4E9023221465CF04BFE00236362204632
:1003900058F056FE04460028C6D1B36A2B6002F01E
:1003A0004DB8254920460DF03FF838B947F018FF01
:1003B00047F01EFF0146214802F046B8204920467A
:1003C0000DF032F80546002840F0F4801D4E3368E9
:1003D000002B3DD11C4802F032B800BF1FC80608F0
:1003E00076C9060827C80608482700203CC8060822
:1003F00000007A444EC806086BC8060891C8060873
:10040000B6C80608B9C80608D7C80608DBC8060873
:10041000F7C806080DC90608C6E106082AC9060875
:10042000E82801200000C8423C31002078C90608B5
:10043000D0C70608C6C90608E8630708DEF706083D
:10044000A8E0060838310020FDC906084C27002026
:1004500047F0C6FE47F0CCFE01469048904FDFF8CB
:10046000CCB2DFF8CCA25CF0DBFD8E485CF0D8FDAE
:100470003368AB4241F3EA874FF04C0808FB05F8BC
:1004800007EB0804607847F0B3FE014658465CF07D
:10049000C7FD17F8081050465CF0C2FD60680BF00D
:1004A00053FF02460B4680485CF0BAFDA0680BF093
:1004B0004BFF02460B467D485CF0B2FDE0680BF056
:1004C00043FF02460B467A485CF0AAFD60690BF0D8
:1004D0003BFF02460B4677485CF0A2FDA0690BF09B
:1004E00033FF02460B4674485CF09AFDE16973489D
:1004F0005CF096FD216A72485CF092FDD4ED0B7AB7
:1005000094ED057A6F48F8EEE77A67EE877AFDEEAC
:10051000E77A17EE901A5CF083FD616A6A485CF036
:100520007FFDA16A69485CF07BFDE16A68485CF088
:1005300077FD216B67485CF073FD606B0BF004FF87
:1005400002460B4664485CF06BFDE36B6BB363499A
:100550001BA864F075F8E16B0DF17F0064F070F892
:10056000236C1BB91BA85CF05BFD1EE0236C012B08
:1005700008D1606C0BF0E8FE02460B461BA85CF04D
:100580004FFD12E0236C022B0FD1606CA46C0BF0BA
:10059000DBFE8046204689460BF0D6FE4246CDE97A
:1005A00000014B461BA85CF03BFD4D485CF038FD5C
:1005B00001355DE74B4920460CF036FF00285CD141
:1005C00072B6494B5A6A1092484A516A1191596A57
:1005D00012914FF08041496A13911968C1F30011DB
:1005E00014911168C1F300111B9162B64048D3F811
:1005F0003490D3F83880DF6BDC6A566BD3F840A0B8
:10060000956B10995CF00CFD11993A485CF008FD6F
:10061000139939485CF004FD119A1099129B3748E0
:1006200001EB42011944022391FBF3F1611A5CF0E2
:10063000F7FC494632485CF0F3FC414631485CF037
:10064000EFFC394630485CF0EBFC21462F485CF06B
:10065000E7FC14992E485CF0E3FC1B992D485CF0F4
:10066000DFFC31462C485CF0DBFC51462B485CF04B
:10067000D7FC29462A4801F0E7BE2A4920460CF05B
:10068000D3FE002856D147F0ABFF10EE100A0BF056
:100690005BFE02460B46244818E600BF21CA060846
:1006A000CC29002033CA060892CA0608AACA06083E
:1006B000C2CA0608DACA0608F2CA06080ACB060841
:1006C00020CB060836CB06084CCB060862CB0608C2
:1006D00078CB06088ECB0608A4CB0608BCCB060850
:1006E00076C90608D0CB060800000140000401408E
:1006F000D4CB0608E1CB0608EECB0608FBCB0608F8
:100700000ECC06081ECC06082ECC06083ECC0608E9
:1007100046CC06084FCC060858CC06086BCC060819
:1007200080CC060896CC06089BCC060866CA06084C
:100730007CCA0608BF4920460CF076FE002840F02F
:10074000DA80042E40F0D480BB4BBC4935980F931F
:100750000FAA1093119363F03BFF10AAB749369884
:100760009FEDB78A63F034FF11AAB449379863F05C
:100770002FFFB4485CF054FCDDED0F7AF5EEC07A43
:10078000F1EE10FAF2EE048A6FDD47F0F1FC9DED18
:100790000F0AD0ED007AF4EEC07AF1EE10FA64DDC3
:1007A000DDED100AF4EEE80AF1EE10FA5DDDDFEDA2
:1007B000A67AF4EEE70AF1EE10FA56D59DED111A7D
:1007C000B4EEC81AF1EE10FA4FDDDFEDA07AB4EE08
:1007D000E71AF1EE10FA48D514AB1BAA13A912A818
:1007E00002F004F900283DD012980BF0ADFD02464E
:1007F0000B4697485CF014FC13980BF0A5FD0246DD
:100800000B4694485CF00CFC149B0BB9924802E038
:100810005F1C1CD191485CF003FC9DF973000490AF
:100820009DF9720003909DF9710002909DF970008E
:1008300001909DF96F0000909DF96E309DF96D203B
:100840009DF96C1086485CF0EBFB01F0FFBD9E1C2F
:1008500002D1844801F0F3BD033341F0F7858248AB
:1008600001F0EDBD814801F0EABD81485CF0D8FBA4
:10087000DDED0F7AF5EEC07AF1EE10FA0ADC47F002
:1008800077FC00680BF060FD02460B4679485CF08F
:10089000C7FB0AE047F06CFCDDED0F7A90ED007AC3
:1008A000B4EEE77AF1EE10FAE9DDDDED107AF4EE60
:1008B000E87AF1EE10FA06DD9FED637AF4EEC77A7E
:1008C000F1EE10FA02D46C485CF0AAFBDDED117A6F
:1008D000F4EEC87AF1EE10FA07DD9FED5C7AF4EEE3
:1008E000C77AF1EE10FA01F1A985644801F02BB83E
:1008F000634801F0A4BD634920460CF095FDC8B9DA
:100900001BA84CF0C5FA1B980BF01EFD02460B46C7
:100910005D485CF085FB1C980BF016FD02460B460B
:100920005A485CF07DFB1D980BF00EFD02460B460D
:100930005748CBE4574920460CF076FD0546002881
:100940006CD1022E73D13C4B3C493598139313AABA
:1009500063F03EFE61F004FD044647F009FC4FF4ED
:100960003372014620460CF0ABFC4B485CF058FB60
:10097000DDED137AF5EEC07AF1EE10FA4FF00007D4
:1009800042DD94ED007AF4EEC77AF1EE10FA3BD82E
:1009900016F01EF8002833D094F88E8084F88E600C
:1009A000204649F00DFD9DED130A149712AB1BAACA
:1009B00014A901201B978DF8485051F061FE204684
:1009C00084F88E8049F0FCFC14980BF0BDFC0246C4
:1009D0000B4632485CF024FB1B980BF0B5FC02463A
:1009E0000B462F485CF01CFB9DF848102D4A2E4BFF
:1009F0002E4800290CBF114619465CF011FB0BE094
:100A00002B485CF00DFB07E020680BF09DFC0246D4
:100A10000B4628485CF004FB204643E2264920466A
:100A20000CF002FD002840F0A180022E48D023489F
:100A300001F005BDB0CC0608000080BFBDCC0608A3
:100A40000AD7A33CC0CC060800803B45CDCC4C3F28
:100A5000E1CC0608FECC060814CD060850CD0608E9
:100A600030CD06086ECD06089CCD0608CBCD060815
:100A700003CE060817CE06083CCE06085DCE060853
:100A80007FCE0608BBCE0608C3CE0608D9CE060820
:100A9000F7CE060812CF060825CF06083ACF06087B
:100AA0004ACF060815C8060810C806085ACF060817
:100AB00069CF06087FCF0608E9CF0608BACF060837
:100AC000B74BB8493598149314AA63F081FD61F0CF
:100AD00047FC044647F04CFB4FF433720146204676
:100AE0000CF0EEFB61F03CFC054647F041FB4FF497
:100AF0003372014628460CF0E3FBAB485CF090FAF9
:100B0000DDED147AF5EEC07AF1EE10FA25DD94ED04
:100B1000007AF4EEC77AF1EE10FA1ED8204684F877
:100B20008E6049F04DFC00231BAA01214FF4FA60AE
:100B30009DED140A1B9352F0B3F840B91B980BF0CB
:100B400003FC02460B4699485CF06AFAA3E1C0B286
:100B500047F04EFB0146964898E120680BF0F4FB05
:100B600002460B4693485CF05BFA97E192492046B7
:100B70000CF05AFC00285CD1022E71D1884B8949B7
:100B80003598129312AA63F023FD8C485CF048FA62
:100B9000DDED127AF5EEC07AF1EE10FA46DD9FED4A
:100BA000887AF4EEC77AF1EE10FA3FD861F0D8FBFC
:100BB000044647F0DDFA4FF43372014620460CF04C
:100BC0007FFB61F0CDFB054647F0D2FA4FF433725C
:100BD000014628460CF074FB204684F88E6049F0EC
:100BE000EFFB1BAB14AA13A94FF4C8709DED120ABA
:100BF00052F016F9A0B91B980BF0A6FB0646139805
:100C00000F460BF0A1FBCDE9020114980BF09CFB01
:100C10003246CDE900013B466A485CF001FA3AE110
:100C2000C0B247F0E5FA014667482FE1674801F096
:100C300006BC674920460CF0F7FBA0B16549204689
:100C40000CF0F2FB002800F0DB80634920460CF03A
:100C5000EBFB0546002840F0E281022E00F02681E1
:100C60005E4801F0ECBB052E40F097804C4B4D499F
:100C70003598119311AA12931393149363F0A8FC5F
:100C800012AA484936989FED568A63F0A1FC13AA30
:100C90004449379863F09CFC14AA4249389863F0A1
:100CA00097FC50485CF0BCF9DDED117AF5EEC07AA6
:100CB000F1EE10FA2BDD47F05BFA9DED110AD0ED55
:100CC000007AF4EEC07AF1EE10FA20DB9DED131AF3
:100CD000B5EEC01AF1EE10FA19DDDDED120AF4EEF0
:100CE000C80AF1EE10FA12DDDFED357AF4EEE70A0C
:100CF000F1EE10FA0BD8DDED141AF5EEC01AF1EE94
:100D000010FA04DB1BA802F023F81B9876E13648A2
:100D10005CF086F9DDED117AF5EEC07AF1EE10FAAD
:100D20000ADC47F025FA00680BF00EFB02460B4682
:100D30002E485CF075F90AE047F01AFADDED117AF9
:100D400090ED007AB4EEE77AF1EE10FAE9DBDDED32
:100D5000127AF4EEC87AF1EE10FA06DD9FED187AF9
:100D6000F4EEC77AF1EE10FA02D921485CF058F996
:100D7000DDED137AF5EEC07AF1EE10FA02DC1D48D3
:100D80005CF04EF9DDED147AF5EEC07AF1EE10FA72
:100D900081F25483184800F0D6BD184801F04FBBCB
:100DA000000080BFBDCC0608F5CF06080DD00608B0
:100DB00023D006087FCF060889D0060895D00608FC
:100DC0006666663FADD00608E0D006080DD106087D
:100DD0006ED106086FD206081DD3060842D1060858
:100DE0000AD7A33C7ED10608ACD1060817CE060868
:100DF000C1D10608E3D1060801D2060825D20608AB
:100E000061F0AEFA044647F0B3F94FF4337201468D
:100E100020460CF055FA61F0A3FA054647F0A8F910
:100E20004FF43372014628460CF04AFA022384F844
:100E30008E30204649F0C4FAC3485CF0F1F8002334
:100E40001BAA14A913A8139314931B9352F0B8FB75
:100E5000B8B913980BF078FA02460B46BB485CF021
:100E6000DFF814980BF070FA06461B980F460BF04B
:100E70006BFA3246CDE900013B46B5485CF0D0F84C
:100E800009E0C0B247F0B4F90146B2485CF0C8F8D6
:100E9000B1485CF0C5F8284649F092FA204661F066
:100EA0008FFA284661F08CFA01F0D0BAAB4BAC490E
:100EB00035981B931BAA63F08BFBAA485CF0B0F833
:100EC000DDED1B7AF5EEC07AF1EE10FA40F3A48066
:100ED0009FEDA57AF4EEC77AF1EE10FA00F29C804D
:100EE00061F03EFA044647F043F94FF4337201468D
:100EF00020460CF0E5F961F033FA074647F038F97F
:100F00004FF43372014638460CF0DAF9022384F8C4
:100F10008E30204649F054FA10F0E2FF804610F07F
:100F2000E7FFB0EE40AA10F0EBFF814610F0A0FF03
:100F300000219FED8E0A9FED8E8A4EF6602010F004
:100F40007FFF07EE905AF8EEE77A87EE880ADDED2C
:100F50001B7A20EE270A48F003F947F041F90646CC
:100F600028B9C820013557F023FF642DE9D19FED42
:100F70007F8A4FF47A75F0EE488AB0EE489AF0EE28
:100F8000489AF7EE00AA51F0FBFA79EE809A47F002
:100F90000FFA39EE009A47F0A3FA0A2038EE008AD9
:100FA00057F006FF013D78EEAA8AECD148F010FC1C
:100FB000B7EE000A47F06CF9384649F001FA2046CE
:100FC00061F0FEF9384661F0FBF94946B0EE4A0A95
:100FD000404610F035FFC8EE287A89EEA87AD4EDA5
:100FE000376AA6EEE77AC9EE287ADFED626A67EE25
:100FF000A67AC7EE276A46B916EE900A0BF0A4F956
:1010000002460B465C48FFF761B9F0B247F0F0F8D2
:1010100001465A4800F088BF594801F010BA5949B2
:1010200020460CF001FA002840F00A81062E40F01C
:1010300004814A4B4A4935980E930EAA0F93109398
:101040001193129363F0C4FA0FAA454936989FEDA5
:101050004E8A63F0BDFA10AA4149379863F0B8FA96
:1010600011AA3F49389863F0B3FA12AA3C4939985B
:1010700063F0AEFA45485BF0D3FFDDED0E7AF5EE96
:10108000C07AF1EE10FA40F3898047F071F89DEDD7
:101090000E0AD0ED007AF4EEC07AF1EE10FA7DDBA4
:1010A0009DED101AB5EEC01AF1EE10FA4FF00003E4
:1010B00074DDDDED0F0AF4EEC80AF1EE10FA6DDD15
:1010C000DFED297AF4EEE70AF1EE10FA66D8DDEDED
:1010D000111AF5EEC01AF1EE10FA5FDB9DED122A3F
:1010E000B5EEC02AF1EE10FA58DB139314931B935C
:1010F0001BAA0DF1370314A913A802F033F8D8B9CD
:101100009DF83730ABB113980BF01EF904461B98CD
:101110000D460BF019F9CDE9020114980BF014F902
:101120002246CDE900012B4619485BF079FF01F01A
:101130008DB9184801F083B9C0B247F059F801469B
:10114000154800F0F1BE00BF7FD20608A6D20608FF
:10115000BBD20608E1D2060852D00608000080BFC4
:10116000BDCC060831D306086666663F0000000065
:101170000000C8425077D63D98D106084FD30608E4
:101180007CD30608B0D306080AD7A33CC9D3060807
:10119000ECD306084AD4060869D40608B0485BF0C8
:1011A0003FFFDDED0E7AF5EEC07AF1EE10FA0ADCC3
:1011B00046F0DEFF00680BF0C7F802460B46A94870
:1011C0005BF02EFF0AE046F0D3FFDDED0E7A90EDE6
:1011D000007AB4EEE77AF1EE10FAE9DBDDED0F7A92
:1011E000F4EEC87AF1EE10FA06DD9FED9F7AF4EE88
:1011F000C77AF1EE10FA02D99C485BF011FFDDEDE1
:10120000107AF5EEC07AF1EE10FA02DC98485BF045
:1012100007FFDDED117AF5EEC07AF1EE10FA02DA91
:1012200094485BF0FDFEDDED127AF5EEC07AF1EE4A
:1012300010FA81F20381904885E3904801F0FFB8ED
:101240008F4920460CF0F0F830B98E485BF0E8FE8C
:1012500053F076F801F0F2B88B4920460CF0E4F830
:10126000C0B98A485BF0DCFE012052F091FB011E00
:101270000DDB46F07DFF044646F072FF851E694295
:101280006941204601F06FFB814801F0D8B88148E0
:1012900001F0DAB8804920460CF0C6F8002840F08A
:1012A0004381062211467D485BF0BAFE7C497D48A9
:1012B0005BF0B6FE7C487D4B7D4A7E4900781B780A
:1012C0001278097808907C48007807907B4800786D
:1012D00006907B48007805907A48007804907A4818
:1012E000007803907948007802907948007801905E
:1012F00078480078009078485BF092FE774B784A07
:101300001978784B784800290CBF114619465BF0D4
:1013100087FE76485BF084FE47F0BAFE0B46024635
:1013200073485BF07DFE734B73481A695B695BF031
:1013300077FE46F015FF821E5342534111A912AAAF
:1013400010A850F07DFE10980AF0FEFF0446129897
:101350000D460AF0F9FFCDE9020111980AF0F4FFF9
:101360002246CDE900012B4664485BF059FE46F069
:10137000F7FE811E4B424B411BAA14A913A850F043
:101380008FFE13980AF0E0FF04461B980D460AF002
:10139000DBFFCDE9020114980AF0D6FF2246CDE921
:1013A00000012B4656485BF03BFE46F0D9FE023862
:1013B000434243411BAA14A913A850F089FE139875
:1013C0000AF0C2FF04461B980D460AF0BDFFCDE9A6
:1013D000020114980AF0B8FF22462B46CDE900011D
:1013E00048485BF01DFE5DF09BFF014646485BF000
:1013F00017FE5EF085F8014644485BF011FE14A329
:10140000D3E9002342485BF00BFE13A3D3E900238A
:1014100040485BF005FE00223F4B40485BF000FE79
:1014200061F046F8044661F033F82146024609238C
:101430003B485BF0F5FD61F053F8044661F030F88D
:1014400002230246214637485BF0EAFD00F0F6BF72
:10145000000000E0FF9F64400000006066664A40B4
:10146000ACD1060817CE06086666663FC1D10608ED
:1014700098D4060801D20608C0D40608E4D40608A9
:1014800042D506084CD5060857D5060862D5060889
:1014900086D506088DD50608A0D50608AAD5060863
:1014A000261D0708BAD506081B7AFF1F127AFF1FF0
:1014B000117AFF1F107AFF1F1A7AFF1F197AFF1F78
:1014C000187AFF1F177AFF1F167AFF1F157AFF1F62
:1014D000147AFF1F137AFF1FC7D50608643D00204A
:1014E0002FD606081BC8060809D6060821D6060806
:1014F00032D606080000001044D6060856D6060864
:101500007AD606089ED60608CBD60608E1D6060887
:10151000F8D606081AD70608008076403CD7060899
:101520004FD706087BD70608B94920460BF07CFF49
:10153000002857D1032E52D1B64BB7493598149392
:1015400014AA1B9363F044F81BAAB349369863F0BE
:101550003FF8B2485BF064FDDDED147AF5EEC07A39
:10156000F1EE10FA1ADD46F003FEDDED147A90ED8F
:10157000007AB4EEE77AF1EE10FA0FDBDDED1B7ABC
:10158000F5EEC07AF1EE10FA08DB10F071FCDDED3B
:101590001B0A9DED140A48F023F858E0A0485BF0C0
:1015A0003FFDDDED147AF5EEC07AF1EE10FA0ADCBB
:1015B00046F0DEFD00680AF0C7FE02460B46994879
:1015C0005BF02EFD5DE046F0D3FDDDED147A90ED8D
:1015D000007AB4EEE77AF1EE10FAE9DB51E09248D6
:1015E00000F02DBF914920460BF01EFF002855D179
:1015F000032E50D1874B88493598149314AA1B9316
:1016000062F0E6FF1BAA8449369862F0E1FF884841
:101610005BF006FDDDED147AF5EEC07AF1EE10FA1E
:101620001BDB9FED847AF4EEC77AF1EE10FA14D842
:10163000DDED1B7AF5EEC07AF1EE10FA0DDB10F05D
:1016400017FCDDED1B0A9DED140A48F049F846F041
:10165000C7FD002800F0FA8638E171485BF0E0FC35
:10166000DDED147AF5EEC07AF1EE10FA06DB9FEDAF
:10167000717AF4EEC77AF1EE10FA02D96E485BF097
:10168000CFFCDDED1B7AF5EEC07AF1EE10FA80F2B8
:10169000D5866A4857E16A4800F0D1BE69492046BC
:1016A0000BF0C2FE08BB022E1CD14FF0FF331BAA69
:1016B000654935981B9362F08BFF64485BF0B0FC82
:1016C0001B9B002B0BDB382214A831468DF85020D1
:1016D0008DF851305BF06CFC5D4800F0B0BE5D48A9
:1016E00000F0ADBE5C4800F0AABE5C4920460BF09D
:1016F0009BFE002837D1022E7FF499A9454B46491D
:101700003598149314AA62F063FF55485BF088FC87
:10171000DDED147AF5EEC07AF1EE10FA40F3C584EF
:1017200046F026FD9DED140AD0ED007AF4EEC07A65
:10173000F1EE10FAC0F2B98401211BAA084601F0AB
:101740007BFF50B91B99002900F03B82012900F072
:101750003F82022940F0478241E2C0B246F048FD94
:1017600001464048E0E3404920460BF05DFE00287A
:1017700040F0F080042E40F0EA80264B2649359850
:10178000139313AA14931B9362F022FF14AA224905
:10179000369862F01DFF1BAA1F49379862F018FFA8
:1017A00032485BF03DFC9DED138A46F0E1FCD0ED44
:1017B000007AB0EEC88AB4EEE78AF1EE10FA00F2D1
:1017C0009880DDED1B7AF5EEC07AF1EE10FAC0F2EA
:1017D00090809FED277AF4EEC77AF1EE10FA00F2CE
:1017E00088809DED147ADFED237AB4EEE77AF1EE8E
:1017F00010FA70D810F03CFBDDED1B0A9DED130ACA
:1018000047F02EFF46F0ECFC002800F0AE845DE0CF
:10181000A8D70608000080BFBDCC0608B5D70608CB
:10182000ACD1060817CE0608EFD7060824D806085C
:1018300036D806086666663F53D80608E3D1060820
:1018400074D80608A6D806081DCB0608BAD806081C
:10185000DED80608E5D806080ED906083DD90608E0
:1018600056D90608F4D906081EDA060832DA060840
:101870000000B443BD3786351420013457F098FA80
:10188000C72C0DDDDDED147A77EEC87A344617EEFD
:10189000900A0AF059FD02460B4628465BF0C0FB51
:1018A00038EE288ADDED147AF4EEC87AF1EE10FAFB
:1018B00018DD10F0DDFADDED1B0A9DED130A47F08F
:1018C000CFFE46F08DFC06460028D5D046F090FCB1
:1018D0000146C94828E300249FEDC88AC84DDFEDC2
:1018E000C98ADFE79FEDC50A47F07AFDC64800F0D8
:1018F000A6BDC6485BF094FB9DED138A46F038FC0C
:10190000D0ED007AB0EEC88AB4EEE78AF1EE10FAB4
:1019100009D946F02DFC00680AF016FD02460B4678
:10192000BB485BF07DFBDDED1B7AF5EEC07AF1EE96
:1019300010FA07DB9FEDB77AF4EEC77AF1EE10FAF2
:1019400040F27C85B4485BF06BFB00F077BDB34898
:1019500000F075BDB24920460BF066FD002840F04E
:10196000AC80022E40F0B280AE4BAF4935981B934D
:101970001BAA62F02DFEAD485BF052FBDDED1B7A39
:10198000F5EEC07AF1EE10FA40F3978146F0E8FBED
:1019900001219DED1B0A064608460FF099FD014600
:1019A0000546A3485BF03CFB012046F0D1FB002D2F
:1019B00065DBA0489FEDA08A5BF032FB46F0D8FBC8
:1019C000044600680AF0C0FC02460B469B485BF0E8
:1019D00027FBD4ED377A67EE887A17EE900A0AF083
:1019E000B3FC02460B4696485BF01AFB94ED357A41
:1019F000DFED947A67EE277A17EE900A0AF0A4FCDE
:101A000002460B4690485BF00BFBD4ED387A67EE4C
:101A1000887A17EE900A0AF097FC02460B468B482C
:101A20005BF0FEFA8A4B94F850118A4A8A480029E2
:101A30000CBF114619465BF0F3FA94F8503143B1EC
:101A4000D4F854010AF080FC02460B4683485BF050
:101A5000E7FA94F830310BB9814827E094F8303137
:101A6000022B01D17F4821E094F83031012B01D1C4
:101A70007D481BE029467D485BF0D2FA18E015F15D
:101A80000A0F01D17A480EE015F10B0F01D1794808
:101A900009E005F16400C0B246F0AAFB01467648B1
:101AA0005BF0BEFA75485BF0BBFA75485BF0B8FABC
:101AB000304646F04DFB00F0C9BC724920460BF0A1
:101AC000B3FC002840F0FB80022E02D06E4800F0EC
:101AD000B6BC544B544935981B931BAA62F078FD51
:101AE00052485BF09DFA9DED1B0AB5EEC00AF1EE7F
:101AF00010FA40F3E2809FED412A0021F0EE421AF5
:101B0000B0EE421AF0EE420A01200FF049FF0546FE
:101B100001465E485BF084FA002D67DB45489FED87
:101B2000468A5BF07DFA46F023FB044600680AF023
:101B30000BFC02460B4641485BF072FAD4ED377A53
:101B400067EE887A17EE900A0AF0FEFB02460B4613
:101B50003B485BF065FA94ED357ADFED3A7A67EE53
:101B6000277A17EE900A0AF0EFFB02460B46484828
:101B70005BF056FAD4ED387A67EE887A17EE900A61
:101B80000AF0E2FB02460B4630485BF049FA304B64
:101B900094F850112F4A304800290CBF11461946BD
:101BA0005BF03EFA94F8503143B1D4F854010AF096
:101BB000CBFB02460B4629485BF032FA94F83031F1
:101BC00013B9274800F03BBC94F83031022B02D106
:101BD000244800F034BC94F83031012B02D1224863
:101BE00000F02DBC2946214800F02EBC15F10A0F4B
:101BF00050D11F485DE000BFCDD7060800000000AF
:101C000055DA06086F12033B64DA0608ACD1060801
:101C10006ADA06080000B44389DA0608ADDA060875
:101C2000EADA0608000080BFBDCC0608FFDA060825
:101C300014DB06081FDB060800007A4448DB0608B0
:101C400065DB06080024744985DB0608A3DB06086B
:101C500010C8060815C80608C2DB0608DBDB060844
:101C600073D906089DD90608BED90608DFD906082B
:101C7000FBDB06081BDC060847DC060852D006081A
:101C800071DC0608F3DC0608BDDC06080CDD06087E
:101C900014DD060815F10B0F01D1D14809E005F15B
:101CA0006400C0B246F0A4FA0146CE485BF0B8F931
:101CB000CD485BF0B5F9CD48C1E3CD48BFE3CD4990
:101CC00020460BF0B1FB68B9CB4B986A0AF01AFBBF
:101CD000C1A3D3E900230AF0BDFC02460B46C74866
:101CE000FEF7F4BAC64920460BF09EFB07460028D3
:101CF00040F0E581022E7EF49AAEC24BC24935987F
:101D0000139313AA62F064FCC0485BF089F9DDED1F
:101D1000137AF5EEC07AF1EE10FA40F3C68146F080
:101D200027FADDED137A90ED007AB4EEE77AF1EE62
:101D300010FAC0F2BA8146F03BFA60F011FB05469A
:101D400046F016FA4FF43372014628460BF0B8FA03
:101D500095F88E3085F88E6028460B9348F030FB5E
:101D6000AB49AC48DFEDAC8A9FEDAC8A5DF0E0F9A1
:101D7000AB485DF00DFAAB485DF00AFAAA485DF099
:101D800007FAAA485DF004FA10F072F846F020FA5B
:101D900007EE107ADDED137AB8EEC70AF0EE480AC6
:101DA00020EE270A80EE280A47F05AFC46F018FA7F
:101DB000044630B90A20013756F0FAFFB7F57A7FAA
:101DC000E2D146F0CDF9831ED3F1000B4BEB030BB0
:101DD000D5F87412584661F013FA1C22002182468D
:101DE00014A80EF06DFFDFF86CC2BCE80F001BAF4B
:101DF0003E460FC69CE80F0086E80F00002C7AD103
:101E00009FED868ADFED8A9A9FED8A9ADFED8A8AB6
:101E1000A0464FF43479D5F87412584661F0F0F9C1
:101E20005045064616D0B8F1060F06DC14AB03EB9E
:101E3000880383ED008A08F10108002357F8232066
:101E4000B24201D0013202D147F8236002E00133EF
:101E5000082BF3D100205DF0BBF906F0010300EE82
:101E6000903AF8EEE00AB0EE480A60EEA90A5DF09A
:101E7000BFF901205DF0ACF9C6F3400300EE903AE3
:101E8000F8EEE00AB0EE480A60EE890A5DF0B0F9BB
:101E900002205DF09DF9C6F3800300EE903AF8EE63
:101EA000E00AB0EE480A60EEA80A5DF0A1F903204E
:101EB0005DF08EF907EE906AB0EE480AF8EEE70A98
:101EC0005DF096F9F7EE007A38EE278A0FF0D0FF32
:101ED00046F07EF9F0EE480A9DED130A47F0C0FB8C
:101EE00046F07EF9044630B9C82056F061FFB9F1DA
:101EF0000109B2468FD146F06BF947F069FCB7EEA5
:101F0000000A46F0C5F90B9B85F88E30284648F04C
:101F100057FA284660F054FA46F052F944B1E0B25C
:101F200046F066F9014645485BF07AF82E4886E2AD
:101F30002346214657F823200133013218BF0131CF
:101F4000082BF7D1062903D13D485BF069F802E080
:101F50003C485BF065F89FED318A9FED3B9A3B4E24
:101F600014AD95ED000A0435D5ED000A60F028FBAC
:101F7000F0EEC08A18EE900A0AF0E6F90134024643
:101F80000B46304621465BF04BF8F4EE498AF1EE01
:101F900010FAF4EE488A48BFB0EE689AF1EE10FAF3
:101FA000C8BFB0EE688A062CDBD138EE498AF6EE5F
:101FB000007A68EE277AB1EE047AF4EEC77AF1EE91
:101FC00010FA49D517EE900A0AF0BEF902460B4600
:101FD0001F4866E0AFF30080000000000088C340A7
:101FE0001BDC060847DC060852D0060871DC060830
:101FF00084DC060836DD0608E82801203DDD0608F9
:102000004DDD0608000080BFBDCC06085ADD06087D
:102010007CDD06088EDD060800007A440000000022
:1020200094DD06089BDD0608A2DD0608A9DD06088A
:102030005C8F823FB81E853F14AE873FB2DD060835
:10204000E1DD060810DE0608000061444EDE0608E9
:1020500069DE060830C10608B2EE047AB4EEC78A1B
:10206000F1EE10FA07D517EE900A0AF06DF9024664
:102070000B464D4815E0B2EE0E7AB4EEC78AF1EE8B
:1020800010FA07D517EE900A0AF05EF902460B46E1
:10209000464806E018EE100A0AF056F9024644488F
:1020A0000B465AF0BDFF4348C9E146F061F80068AD
:1020B0000AF04AF902460B463F48FEF707B93F4986
:1020C00020460BF0B1F90546E8B946F051F829462B
:1020D000B0F8C842284648F033FF074622F018FF00
:1020E000B0F86C61284622F0FBFFA4B205463A46E0
:1020F000214633485AF094FF2A46314631485AF077
:102100008FFF31489BE1314920460BF08DF90028C3
:1021100000F09C812E4920460BF086F948BB032E27
:1021200040F094812B4B1B9014AA2B4935981493A3
:1021300062F04EFA1BAA2949369862F049FA9DEDE1
:10214000140ADFED277AB4EEE70AF1EE10FA0EDD9D
:10215000DFED247AB4EEE70AF1EE10FA07D51B980A
:10216000003018BF012048F07BF91F4867E11F4885
:1021700065E11F4920460BF057F960B91D491E481B
:102180005AF04EFF1D491E485AF04AFF1D491E488D
:102190005AF046FF52E11D4920460BF045F9B8BB05
:1021A00072B600BFFDE700BFA3DE0608EADE060840
:1021B00038DF0608B4DF06087FCF0608F6DF06081A
:1021C000FADF060827E0060855E006089EE0060844
:1021D000AFE006080000FAC3BDCC06081DCB060818
:1021E0000000B4C30000B44351DA0608C5E0060895
:1021F000D8E00608E0E00608E7E00608F6E0060892
:10220000FFE006080EE1060814E1060823E10608CF
:10221000914920460BF008F90546002840F012814C
:102220008E488F4CDFF880838E4F8F4E5AF0F8FE29
:1022300089485AF0F5FE8D485AF0F2FE8C485AF063
:10224000EFFE8C485AF0ECFE8B485AF0E9FE8B48C2
:102250005AF0E6FE8A485AF0E3FE8A485AF0E0FE59
:1022600089485AF0DDFE89485AF0DAFE88485AF06B
:10227000D7FE88485AF0D4FE87485AF0D1FE8748E6
:102280005AF0CEFE86485AF0CBFE86485AF0C8FE79
:1022900085485AF0C5FE85485AF0C2FE84485AF077
:1022A000BFFE84485AF0BCFE83485AF0B9FE83480A
:1022B0005AF0B6FE82485AF0B3FE82485AF0B0FE99
:1022C00081485AF0ADFE81485AF0AAFE80485AF083
:1022D000A7FE80485AF0A4FE7F485AF0A1FE7F482E
:1022E0005AF09EFE7E485AF09BFE7E485AF098FEB9
:1022F0007D485AF095FE7D485AF092FE7C485AF08F
:102300008FFE7C485AF08CFE7B485AF089FE7B4851
:102310005AF086FE7A485AF083FE7A485AF080FED8
:1023200079485AF07DFE71485AF07AFE77485AF0A3
:1023300077FE77485AF074FE76485AF071FE764878
:102340005AF06EFE75485AF06BFE75485AF068FEFA
:1023500074485AF065FE74485AF062FE73485AF0A9
:102360005FFE73485AF05CFE72485AF059FE72489C
:102370005AF056FE71485AF053FE71485AF050FE1A
:1023800070485AF04DFE70485AF04AFE6F485AF0B5
:1023900047FE6F485AF044FE6E485AF041FE6E48C0
:1023A0005AF03EFE6D485AF03BFE6D485AF038FE3A
:1023B0006C485AF035FE6C485AF032FE6B485AF0C1
:1023C0002FFE6B485AF02CFE6A485AF029FE6A48E4
:1023D0005AF026FE69485AF023FE69485AF020FE5A
:1023E00068485AF01DFE68485AF01AFE67485AF0CD
:1023F00017FE67485AF014FE66485AF011FE664808
:102400005AF00EFED8F80030AB4217DDE36893B106
:10241000A26821681AB161485AF002FE02E008463B
:102420005AF0FEFD616819B130465AF0F9FD02E03C
:1024300038465AF0F5FD01351034E3E758485AF0B4
:10244000EFFD03E0574821465AF0EAFD75B0BDECB8
:10245000068BBDE8F08F00BF4DE106082DE10608B0
:102460004C270020ABEB060858F6060841E10608A9
:102470003CC8060852E10608B6C806087FE106080F
:10248000D7C80608A7E10608C6E10608BBE10608AA
:10249000E8630708CEE10608A8E00608EEE10608B2
:1024A000D0CB06082FE2060896CC06084FE20608B5
:1024B0006BE2060897E20608DAE2060815E306086A
:1024C000BBCE06083AE3060857E3060874E306089D
:1024D000B5E30608CBE3060808E406081BE4060893
:1024E0006FE40608A7E40608E7E4060811E5060815
:1024F0006FD2060846E506089CE50608B7E506081B
:10250000EEE506083FE606087CE6060842D5060822
:10251000B9E6060857D50608DBE60608A0D5060882
:1025200007E7060831E706084FE706087EE70608D2
:102530009EE70608CDE70608EBE7060812E806085E
:1025400035E8060878E80608ADE80608F8E8060861
:102550001FE9060847E906089DE90608C9E90608D3
:1025600024EA060836DD06085DEA06088FEA060852
:10257000A6EA0608F6DF0608DCEA06089EE006087A
:10258000F0EA06081AEB060844EB0608D8E006084D
:1025900062EB060823E1060882EB0608A5EB0608B5
:1025A00076C90608DAEB060848270020000000007C
:1025B00037B502EB410294B2054601A9204657F017
:1025C000FFFA08B100200FE0601C0DF1060180B297
:1025D00057F0F6FA0028F5D1BDF80420BDF8063012
:1025E00043EA02432B60012003B030BD70B505689B
:1025F00041F288300E46144646F052FD46F058FD32
:10260000B0EE080A46F05CFD30B304EB460460F01F
:10261000D7FDA4B20FF08CFC52F0C2FDF22052F0B4
:10262000D7FD290C204657F0BBFB092809D1601CB7
:10263000A9B280B257F0B4FBA0F109035C425C413F
:1026400000E0002452F0BCFD0FF0A2FC642046F034
:1026500027FD60F0C5FD00E00124204670BDF8B5FF
:1026600041F2883046F01CFD46F022FDB0EE080A2B
:1026700046F026FD48B3054660F0A2FD0FF058FC79
:1026800052F08EFDF22052F0A3FD114E002441F2D3
:10269000707706EB440316F814105B78381943EA98
:1026A000012180B257F07CFB092803D101344E2C64
:1026B000EFD100E0002552F083FD0FF069FC6420AB
:1026C00046F0EEFC60F08CFD00E001252846F8BDE8
:1026D0000000001070B540F624420021A8B03F4829
:1026E0000EF0EEFA3D4900230A4603F57A7021F810
:1026F00013000133B3F5B37FF7D140F21E2103F28B
:102700006A6022F8130001338B42F8D140F25E2157
:1027100003F69A1022F8130001338B42F8D140F2ED
:102720005E4103F6425022F8130001338B42F8D188
:102730002B4A41F2707341F2BE7122F8023F01331D
:102740009BB28B42F9D152F02BFDF22052F040FDAA
:1027500057F05EFA52F034FD002441F2707601AD7C
:1027600030190DF1020180B257F02AFA58B9BDF8BC
:1027700002301A0A05F8142005EB440201344E2CED
:102780005370EDD11CE09C22002128460EF098FAEF
:10279000144B154A1968914203D158689968CDE9DC
:1027A0000201D968914203D118695969CDE905013F
:1027B0009B69934204D180220C4908A80AF080FD4D
:1027C000094B084801939C222946049307930AF079
:1027D00077FDFFF744FF28B070BD00BF40310020F7
:1027E000FA390020000000101E6B89051C00001043
:1027F0001F2902D840F6B832DAE600207047FF29D8
:1028000002D84FF47A62D3E6002070471F2902D81D
:1028100040F6B832EAE600207047FF2902D84FF4AC
:102820007A62E3E60020704770B5054694B0002454
:1028300004F5FA600DF1020180B257F0C1F960B9F8
:10284000BDF802301A0A05F8142005EB44020134E1
:10285000B82C5370ECD1012400E000242846B5F8D0
:102860006C6122F03DFC864206D0172301A88DF84A
:1028700005300EF0B5FD00E014B9284612F060F9FD
:1028800014B070BD70B5054641F2883046F008FCC2
:1028900046F00EFCB0EE080A46F012FC064650B3B5
:1028A00060F08EFC0FF044FB284622F019FCA5F8DE
:1028B0006C0152F075FCF22052F08AFC002405EB0A
:1028C000440315F814105B7804F5FA6043EA01211B
:1028D00080B257F065FA092803D10134B82CEED143
:1028E00000E0002652F06CFC0FF052FB642046F032
:1028F000D7FB60F075FC304670BDF0B541F288360C
:1029000095B005460F46002908BF4FF47A7600249B
:1029100030190DF1020180B257F052F968B9BDF8D3
:1029200002301A0A05F8142005EB44020134B4F50C
:10293000B37F5370ECD1012400E0002439462846CF
:10294000B5F8C86248F0FCFA864206D0182301A800
:102950008DF805300EF044FD00E014B9284611F062
:102960003FFE15B0F0BDF8B5054641F288300C4683
:1029700046F096FB46F09CFBB0EE080A46F0A0FB42
:10298000064688B360F01CFC0FF0D2FA002C2146FA
:10299000284641F2883708BF4FF47A7748F0D0FADA
:1029A000A5F8C80252F0FCFBF22052F011FC002402
:1029B00005EB440315F814105B78381943EA01213C
:1029C00080B257F0EDF9092804D10134B4F5B37F92
:1029D000EED100E0002652F0F3FB0FF0D9FA6420AC
:1029E00046F05EFB60F0FCFB3046F8BD2DE9F04F91
:1029F0002DED088B85B0B0EE609AF0EE409AF0EEC7
:102A000041AA0393CDE9011282465FF0A9FC044676
:102A10005FF0A6FC064645F0ABFB4FF4337201466F
:102A200020460AF04DFC4FF43372214630460AF03E
:102A300047FCC14AC4F8A820C04AC4F89C2000231F
:102A4000BF4A84F88E30F7EE008A84F88F3084F81D
:102A50008D30C4ED288A84ED249AC4F8942084F83B
:102A60005532204647F0ACFC4FF4FA7545F0B8FB00
:102A700020B1642056F09CF9013DF7D142F210706C
:102A800056F096F90FF02CFA80460FF031FAB0EEBE
:102A900040AA0FF035FA81460FF0EAF900219FEDC8
:102AA000A90A4EF660200FF0CBF945F081FB45F006
:102AB0008FFBB0EE690A46F093FC0025B5EE008A64
:102AC000012D0FD145F084FB46F082FEB7EE000ADF
:102AD00045F0DEFB79EE097A9B4BC4ED247AC4F80D
:102AE0009C3012E0022D1FD145F072FB46F070FEC3
:102AF000B7EE000A45F0CCFBF1EE007A69EE277ADA
:102B00000123C4ED247A84F88D3045F061FB204622
:102B100047F056FC42F2107056F04AF945F058FB67
:102B2000B0EE690A46F05CFC4FF0000B5F46B6EE73
:102B300000BA45F0FDFBB4EECB0AF1EE10FA20D559
:102B40000A2056F035F945F0F3FBB4EEC80AF1EE71
:102B500010FA07F1010707DBBBF1000F40F0E2803C
:102B600001204AF0ADF9DDE0B7F5FA6FE1DDBBF128
:102B7000000F0BD041F288339F420DD04FF0010B74
:102B8000D7E7BBF1000F1ED14FF0010B0135032D2C
:102B900096D1BBF1000F16D19FED6A0A46F020FCDA
:102BA0004946B0EE4A0A40460FF04AF9304647F02F
:102BB00007FC45F005FB20465FF002FC30465FF065
:102BC000FFFB0020B3E04AF083F945F001FBB6EECD
:102BD000000A46F0C5FA4FF47A6056F0E9F845F07D
:102BE000F7FA9FED580A46F0FBFB002045F050FD38
:102BF0004FF4FA650746002045F04AFDC01B022845
:102C000006DC0A2056F0D4F8013DF4D1012500E09D
:102C100002254AF01DF9002045F03AFD40F6B8378C
:102C20008346002045F034FDA0EB0B00312805DC85
:102C30000A2056F0BDF8013FF3D100E001350298BB
:102C40004AF04EF9039B18604AF002F941F28837C6
:102C50008AED000A45F06CFBB4EEEA0AF1EE10FAD8
:102C600005DD0A2056F0A4F8013FF3D100E001355C
:102C700045F0AEFAB0EE6A0A46F072FA4AF0E8F8A9
:102C8000002045F005FD9FED2F8A834640F6B837BA
:102C9000F0EE489A002045F0FBFCA0EB0B00632807
:102CA0000BDC45F085FB0A2079EE809A56F080F81F
:102CB000013F38EE288AEDD100E001354AF0C8F82E
:102CC000B0EE409A45F084FA46F082FDB7EE000A75
:102CD00045F0DEFA1D4BDAED007A1B8A39EE679A71
:102CE00007EE903AF8EE677AC9EE888A019B304683
:102CF00089EE277A68EE878AC3ED008A47F060FB89
:102D00004946B0EE4A0A40460FF09AF845F058FAA4
:102D100020465FF055FB30465FF052FB6B1F584278
:102D2000584104E0B7F5FA6F3FF724AF26E705B046
:102D3000BDEC088BBDE8F08F0000964300004842D0
:102D400000808944000000000000A0413CE8002011
:102D50002DE9F04F2DED0A8B83B0F0EE418AB0EEF5
:102D6000408AB0EE609AB0EE61AA01905FF0F8FA86
:102D700004465FF0F5FA064645F0FAF94FF433726F
:102D8000014620460AF09CFA4FF433722146304641
:102D90000AF096FA002384F88E3084F88F3084F895
:102DA0008D30A54BC4F85C32A44BC4F8A830A44BBA
:102DB000C4F89C30F7EE00AAA24BC4ED28AAC4EDDB
:102DC000248AC4F89430204647F0FAFA4FF4FA7592
:102DD00045F006FA20B1642055F0EAFF013DF7D135
:102DE00045F0FEF9054618B1304647F0E9FAABE088
:102DF00042F2107055F0DCFF0FF072F807460FF04A
:102E000077F8F0EE409A0FF07BF880460FF030F83C
:102E100029469FED8D0A9FED8DBA4EF660200FF08A
:102E20000FF845F0C5F945F0D3F9B0EE480A46F081
:102E3000D7FA4FF0010B012D0AD145F0C9F946F040
:102E4000C7FCB7EE000A45F023FA84ED27BA23E069
:102E5000022D0FD145F0BCF946F0BAFCB7EE000ADE
:102E600045F016FA78EEA87A794BC4ED247AC4F8C6
:102E70009C3011E0032D1ED145F0AAF946F0A8FCC4
:102E8000B7EE000A45F004FAF1EE007A68EEA77A90
:102E900084F88DB0C4ED247A45F09AF9204647F0C5
:102EA0008FFA42F2107055F083FF45F091F9B0EEC1
:102EB000480A46F095FA4FF00009CA46F6EE00BA05
:102EC00045F036FAB4EEC90AF1EE10FA22D50A201E
:102ED00055F06EFF45F02CFA69EE2B7A0AF1010AE3
:102EE000B4EEE70AF1EE10FA07DBB9F1000F40F09B
:102EF0009880012049F0E4FF93E0BAF5FA6FDFDD36
:102F0000B9F1000F0BD041F288339A450DD04FF044
:102F10000109D5E7B9F1000F1ED14FF001090135C4
:102F2000042D88D1B9F1000F16D19FED470A46F064
:102F300057FA4146B0EE690A38460EF081FF204646
:102F400047F03EFA45F03CF920465FF039FA30464A
:102F50005FF036FA002069E045F03AF9B0EE490A30
:102F60009FED398ADFF8F8B09FED3ACA46F0F8F8DD
:102F70004FF4FA6AF0EE488AB0EE48BAB0EE489ADA
:102F8000F3EE00BABBF810309DB245F0D1F907EE70
:102F9000905AF8EE677A67EE8C7A67EEAB7AA7EE16
:102FA000809A45F005FA3BEE00BA45F069FA0A202E
:102FB00078EE808A55F0FCFEBAF1010A38EE2A8AD2
:102FC000E0D14146B0EE690A38460EF039FF30468E
:102FD00047F0F6F945F0F4F89FED1B0A46F000FAC9
:102FE000C8EE881A019B204689EE087A6AEE611ABB
:102FF000F0EE007AA1EEA77ACBEE087ADFED166A42
:1030000067EEA67ADFED156A67EEA67AC7EE276A45
:10301000C3ED006A5FF0D4F930465FF0D1F90120CA
:1030200004E0BAF5FA6F3FF76EAF70E703B0BDEC9E
:103030000A8BBDE8F08F00BF00401C46000096439D
:1030400000004842008089440000000000007A43EC
:103050000000A0416740533A5077D63DD7B3DD3FDB
:103060003CE80020DFED377AC0EEA70AB7EE007A21
:10307000C7EE207A9FED347A67EE877A9FED337A38
:1030800027EE877AB4EEC07AF1EE10FA0ADB80EE12
:10309000277A82B0FCEEC77ACDED017A9DF8040064
:1030A00002B070479FED2A7A27EE877AB4EEC07A95
:1030B000F1EE10FA0EDB37EEA77AC0EE077A9FED3D
:1030C000257A77EEC77AFCEEE77A17EE900A60F081
:1030D0007F0018E09FED207A27EE877AB4EEC07A61
:1030E000F1EE10FA11DBB2EE007A27EE877AC0EE2D
:1030F000077A9FED1A7A77EEC77AFCEEE77A17EE39
:10310000900A60F03F00C0B270479FED157A27EE3D
:10311000877AB4EEC07AF1EE10FA10DBB3EE007AE3
:1031200027EE877AC0EE077A9FED0C7A77EEC77AA2
:10313000FCEEE77A17EE900A60F01F00E3E7FF204D
:10314000704700BF0024744900007A440000FE422A
:1031500000007E43000080420000FC43000000426B
:1031600000007C442DE9F04F2DED0E8B9B46002393
:1031700085B08BF80030B0EEC09AF0EE40BAF0EEB9
:1031800060AAB0EE41CAB0EE61AAF0EE429A0646DD
:10319000CDE9011244F0ECFFD0ED887AB4EEE79A65
:1031A000F1EE10FA11D8B5EEC0AAF1EE10FA03D87C
:1031B00044F0DEFF90ED37AAF5EEC09AF1EE10FA7A
:1031C00003D844F0D5FFD0ED359AB5EEC0AAF1EEA4
:1031D00010FA40F22982F5EEC09AF1EE10FA40F2B0
:1031E0002382DFEDE47A69EEA78A2AEE278A5FF070
:1031F000B7F804465FF0B4F8054644F0B9FF4FF461
:103200003372014620460AF05BF84FF433722146D0
:1032100028460AF055F8D4ED197A9FEDD77AC4ED17
:103220002E8A67EE877A0223F4EE6A7A84F88E306B
:103230000023F1EE10FA84F8303184ED2F8A84F8FF
:103240005C31204648BFF0EE67AA47F0B9F84FF46A
:10325000FA7744F0C5FF20B1642055F0A9FD013F85
:10326000F7D144F0BDFF0746002840F09F8042F2AE
:10327000107055F09DFD0EF033FE80460EF038FEC6
:10328000B0EE40BA0EF03CFEDFEDBC8A81460EF097
:10329000EFFD3946B0EE680A4EF660200EF0D0FD24
:1032A00044F086FFD4ED887AB4EEE79AF1EE10FA96
:1032B00040F332819FEDB29AB0EE688A44F088FF05
:1032C00007EE907AB8EEE70AF0EE480A20EE2B0AF5
:1032D00080EE090A46F084F944F082FF8246002815
:1032E00040F08A810A20013755F062FDC82FE5D1F0
:1032F0009FEDA28AF7EE00CA4FF47A77B0EE489AB3
:10330000B0EE6CDA45F014F80A20B0EEC00A39EEDF
:10331000009A55F04DFD013F38EE2C8AF2D144F071
:103320005FFF8246002840F06781C9EE08DA9FED12
:10333000938ADFED94EA9FED94EADFED94CAB0EE54
:10334000489A09E0BAF57A6F55DCDFED917AB4EE70
:10335000E79AF1EE10FA62DA44F0EAFFB0EEC00A42
:10336000B4EEEA0AF1EE10FA59D5CCEE2E7A39EE27
:10337000279A44F02DFF94F8552212B3F1EE490A32
:10338000B0EE6B0A46F02CF944F02AFF0746D8B19C
:10339000B0EE4B0A494640460EF052FD44F010FF95
:1033A00046F016FAB7EE000A44F072FF284647F0DE
:1033B00007F820465FF004F828465FF001F8BA46A7
:1033C00034E1F0EE490ADBE70A2055F0F1FC44F065
:1033D000AFFFB0EEC00AB4EE408AF1EE10FA0AF187
:1033E000010A43F6982248BFB0EE408A9245A9D11F
:1033F000684A326013E068EE0E7AF4EEC07AF1EEBD
:1034000010FA02DD4FF0404307E06DEEAC7AF4EEC7
:10341000EA7AF1EE10FA98DD5F4B3360924642F2A1
:10342000107055F0C5FC43F69822924576D09FED7A
:10343000538A42F21072F0EE48BAF0EE48AAB0EEAB
:1034400048CAF0EE48CA03924FF09AF87CEE80CA60
:103450004FF08EF83CEE00CA4EF0C2FF7AEE80AA22
:103460004EF0B6FF01207BEE80BA55F0A1FC44F08F
:10347000B7FE38EE0D8A0746824610B9039A013A24
:10348000E1D18CEE080ACCEE887A8AEE88CACBEEBF
:1034900088AA20EE000AA7EEA70A0DF0B1FBB0EE55
:1034A000408A2AEEAA0AACEE0C0A0DF0A9FBDFED69
:1034B0003B7ADFED3B6AAAEE408A204629EE279A46
:1034C000C8EE097AE9EEC07AC6ED007A84ED37AA33
:1034D000C4ED359A3268C4F8E020D6ED007A67EE84
:1034E000A77A86EEA77A84ED397A46F069FF41F231
:1034F000883055F05DFC44F033FE831E584258413D
:103500004EF036FC9FED1D0A4EF0A2FC322055F025
:103510004FFC002F6BD101E0C6ED008A9FED178AAA
:10352000DFED1EAA9FED1FAA4FF4FA67B0EE489A8E
:10353000F7EE009A4EF0ECFE60EE2ABA4EF028FE4E
:10354000B0EEC00AB4EECA0AF1EE10FA2CD44FF075
:1035500017F880EE2B0A012038EE298A39EE009AFE
:1035600055F026FC44F03CFE8246F8B9013FE1D11B
:103570001CE000BFABAA26446666663F0000000060
:103580000000484300007A443333333FCDCC8C3FB6
:1035900000803B46000080BF000040C05077D63D11
:1035A0000000FA430AD7A33C4FF0000A029BB5EE95
:1035B000C08AF1EE10FA83ED008A08DDC9EE087AC0
:1035C000019B0122C3ED007A8BF8002002E0019BF1
:1035D000C3ED008AD6ED007AF5EEC07AF1EE10FA6E
:1035E000C4BF01228BF80020BAF1000F04D0019B68
:1035F000C3ED008AC6ED008A4946B0EE4B0A40464C
:103600000EF01EFC44F0DCFD46F0E2F8B7EE000AD6
:1036100044F03EFE284646F0D3FE20465EF0D0FE43
:1036200028465EF0CDFE01E04FF0000A504605B09E
:10363000BDEC0E8BBDE8F08F2DE9F04F2DED068B24
:103640004FF0FF3389B01360B0EE409ACDE900012E
:1036500093465EF085FE05465EF082FE044644F029
:1036600087FD4FF433720146284609F029FE4FF4D6
:1036700033722946204609F023FE022385F88E3056
:10368000002385F83031B54BC5F8B8304FF07E5384
:10369000C5F8BC30284646F093FE4FF4FA7644F065
:1036A0009FFD20B1642055F083FB013EF7D144F02B
:1036B00097FD0646A8BB42F2107055F079FB0EF05C
:1036C0000FFC81460EF014FCF0EE408A0EF018FC60
:1036D00082460EF0CDFB31469FEDA10A4EF66020EA
:1036E0000EF0AEFB06AF44F063FD85F85462284649
:1036F00046F066FE0DF10E013846B0EE490A4FF075
:10370000F7FF0646B8B1B0EE680A514648460EF0DB
:1037100097FB44F055FD46F05BF8B7EE000A44F025
:10372000B7FD204646F04CFE28465EF049FE204696
:103730005EF046FE0CE144F03BFD9DF80E200223B6
:10374000002A00F09E8084F8303184F8546204F23C
:1037500031123346F95C02F8011B0133082BF9D111
:10376000012358E00A2008F1010855F021FBB8F5C3
:103770007A7F40F0908013F083F8DFED799AB0EE15
:10378000408A07EE907AB42FB8EEE7AA40F0B080F6
:1037900013F076F8F0EE400AB0EE40AAB0EE480A18
:1037A0005EF00EFFF0EE4A0AB0EEC08AB0EE690A93
:1037B0005EF006FFF0EE007AB4EEE78AF1EE10FA62
:1037C000B0EEC00A29DDF6EE007AA8EE670AF5EE43
:1037D000007A28EE278AB4EEC80AF1EE10FA1CD55A
:1037E0000DF10F0305AA04A90020B0EE490A4EF01E
:1037F00047FF0499C4F8C8100599C4F8D0100122F5
:1038000002239DF80F1084F8543284F8302184F894
:10381000CC108DF80E20CBF800309DF80E3033B967
:1038200084F83031CBF8003001238DF80E3051464A
:10383000B0EE680A48460EF003FB44F0C1FC45F0C8
:10384000C7FFB7EE000A44F023FD204646F0B8FD5E
:103850009DF80E30002B3FF467AF009B3BB144F066
:103860007FFC831E594259412046FFF77CF8019B9B
:10387000002B3FF459AF002221460E2059F0F0FCF6
:1038800052E785F85432284646F09AFDDFED359A26
:103890009FED338AB04644F09BFC07EE908AB8EE69
:1038A000E70AF0EE480A20EE090A80EE290A45F000
:1038B000D7FE44F095FC074600283FF453AF51462D
:1038C000B0EE680A48460EF0BBFA44F079FC45F0C9
:1038D0007FFFB7EE000A44F0DBFC204646F070FDA7
:1038E00028465EF06DFD20465EF06AFD3E462FE004
:1038F00044F06EFCF0EE4A0AB0EE490A45F0B0FE24
:1039000044F06EFC8046C0B15146B0EE680A4846AD
:103910000EF096FA44F054FC45F05AFFB7EE000A58
:1039200044F0B6FC204646F04BFD28465EF048FDCC
:1039300020465EF045FD46460AE0322055F038FA52
:103940005A2F03D112F09CFFF0EE409A013718E78E
:10395000304609B0BDEC068BBDE8F08F6F12033A1C
:103960000000000000007A449FED117AD0ED356A26
:10397000D0ED387A20EE070AB7EE007A87EE006ABB
:1039800090ED377A66EE866A26EE077A67EEA77ABA
:10399000C0ED2E6ADFED076A80ED2F7A86EEA77AFA
:1039A000DFED057A67EE277AC0ED397A704700BF00
:0C39B000BD3786356F12833A002474493D
:08C00000610D010865C0000894
:04C0080041C000082B
:10C0400010B5054C237833B9044B13B10448AFF352
:10C0500000800123237010BD401F0020000000005D
:10C06000BC7B070808B5034B1BB103490348AFF37A
:10C07000008008BD00000000441F0020BC7B0708B2
:10C0800081F0004102E000BF83F0004330B54FEA89
:10C0900041044FEA430594EA050F08BF90EA020FF6
:10C0A0001FBF54EA000C55EA020C7FEA645C7FEA89
:10C0B000655C00F0E2804FEA5454D4EB5555B8BFAC
:10C0C0006D420CDD2C4480EA020281EA030382EA1D
:10C0D000000083EA010180EA020281EA0303362DAF
:10C0E00088BF30BD11F0004F4FEA01314FF4801C82
:10C0F0004CEA113102D0404261EB410113F0004F94
:10C100004FEA03334CEA133302D0524263EB43034A
:10C1100094EA050F00F0A780A4F10104D5F1200EE8
:10C120000DDB02FA0EFC22FA05F2801841F1000143
:10C1300003FA0EF2801843FA05F359410EE0A5F117
:10C1400020050EF1200E012A03FA0EFC28BF4CF048
:10C15000020C43FA05F3C01851EBE37101F00045FE
:10C1600007D54FF0000EDCF1000C7EEB00006EEB0B
:10C170000101B1F5801F1BD3B1F5001F0CD3490895
:10C180005FEA30004FEA3C0C04F101044FEA4452EC
:10C1900012F5800F80F09A80BCF1004F08BF5FEA73
:10C1A000500C50F1000041EB045141EA050130BD53
:10C1B0005FEA4C0C404141EB010111F4801FA4F1F6
:10C1C0000104E9D191F0000F04BF01460020B1FA4B
:10C1D00081F308BF2033A3F10B03B3F120020CDA83
:10C1E0000C3208DD02F1140CC2F10C0201FA0CF061
:10C1F00021FA02F10CE002F11402D8BFC2F1200CC6
:10C2000001FA02F120FA0CFCDCBF41EA0C0190407B
:10C21000E41AA2BF01EB0451294330BD6FEA0404C4
:10C220001F3C1CDA0C340EDC04F11404C4F12002AF
:10C2300020FA04F001FA02F340EA030021FA04F3C1
:10C2400045EA030130BDC4F10C04C4F1200220FA18
:10C2500002F001FA04F340EA0300294630BD21FA56
:10C2600004F0294630BD94F0000F83F4801306BF1C
:10C2700081F480110134013D4EE77FEA645C18BF10
:10C280007FEA655C29D094EA050F08BF90EA020FA7
:10C2900005D054EA000C04BF1946104630BD91EA9F
:10C2A000030F1EBF0021002030BD5FEA545C05D1A2
:10C2B0004000494128BF41F0004130BD14F58004E1
:10C2C0003CBF01F5801130BD01F0004545F0FE4155
:10C2D00041F470014FF0000030BD7FEA645C1ABF8A
:10C2E000194610467FEA655C1CBF0B46024650EAC1
:10C2F000013406BF52EA033591EA030F41F40021ED
:10C3000030BD00BF90F0000F04BF0021704730B572
:10C310004FF4806404F132044FF000054FF0000147
:10C3200050E700BF90F0000F04BF0021704730B508
:10C330004FF4806404F1320410F0004548BF4042DD
:10C340004FF000013EE700BF42004FEAE2014FEA32
:10C3500031014FEA02701FBF12F07F4393F07F4F0D
:10C3600081F06051704732F07F4208BF704793F010
:10C370007F4F04BF41F40021704730B54FF4607423
:10C3800001F0004521F000411CE700BF50EA010226
:10C3900008BF704730B54FF000050AE050EA0102CF
:10C3A00008BF704730B511F0004502D5404261EB3F
:10C3B00041014FF4806404F132045FEA915C3FF480
:10C3C000D8AE4FF003025FEADC0C18BF03325FEA1D
:10C3D000DC0C18BF033202EBDC02C2F1200300FACE
:10C3E00003FC20FA02F001FA03FE40EA0E0021FAF3
:10C3F00002F11444BDE600BF000000000000000090
:10C4000070B54FF0FF0C4CF4E06C1CEA11541DBFEA
:10C410001CEA135594EA0C0F95EA0C0F00F0DEF8B5
:10C420002C4481EA030621EA4C5123EA4C5350EA9A
:10C43000013518BF52EA033541F4801143F48013EB
:10C4400038D0A0FB02CE4FF00005E1FB02E506F07C
:10C450000042E0FB03E54FF00006E1FB03569CF0D1
:10C46000000F18BF4EF0010EA4F1FF04B6F5007FD7
:10C4700064F5407404D25FEA4E0E6D4146EB060649
:10C4800042EAC62141EA55514FEAC52040EA5E50D2
:10C490004FEACE2EB4F1FD0C88BFBCF5E06F1ED87C
:10C4A000BEF1004F08BF5FEA500E50F1000041EBB3
:10C4B000045170BD06F0004646EA010140EA020060
:10C4C00081EA0301B4EB5C04C2BFD4EB0C0541EA82
:10C4D000045170BD41F480114FF0000E013C00F397
:10C4E000AB8014F1360FDEBF002001F0004170BDBB
:10C4F000C4F10004203C35DA0C341BDC04F11404D4
:10C50000C4F1200500FA05F320FA04F001FA05F25F
:10C5100040EA020001F0004221F0004110EBD3702C
:10C5200021FA04F642EB06015EEA430E08BF20EA58
:10C53000D37070BDC4F10C04C4F1200500FA04F3FB
:10C5400020FA05F001FA04F240EA020001F000418D
:10C5500010EBD37041F100015EEA430E08BF20EA00
:10C56000D37070BDC4F1200500FA05F24EEA020E48
:10C5700020FA04F301FA05F243EA020321FA04F077
:10C5800001F0004121FA04F220EA020000EBD3702E
:10C590005EEA430E08BF20EAD37070BD94F0000F2E
:10C5A0000FD101F00046400041EB010111F4801F62
:10C5B00008BF013CF7D041EA060195F0000F18BF13
:10C5C000704703F00046520043EB030313F4801F4F
:10C5D00008BF013DF7D043EA0603704794EA0C0F09
:10C5E0000CEA135518BF95EA0C0F0CD050EA41061F
:10C5F00018BF52EA4306D1D181EA030101F000419C
:10C600004FF0000070BD50EA410606BF10461946C3
:10C6100052EA430619D094EA0C0F02D150EA0136CF
:10C6200013D195EA0C0F05D152EA03361CBF104610
:10C6300019460AD181EA030101F0004141F0FE41AF
:10C6400041F470014FF0000070BD41F0FE4141F433
:10C65000780170BD70B54FF0FF0C4CF4E06C1CEA33
:10C6600011541DBF1CEA135594EA0C0F95EA0C0FE8
:10C6700000F0A7F8A4EB050481EA030E52EA0335A3
:10C680004FEA013100F088804FEA03334FF08055C4
:10C6900045EA131343EA12634FEA022245EA1115F1
:10C6A00045EA10654FEA00260EF000419D4208BFA2
:10C6B000964244F1FD0404F5407402D25B084FEA4F
:10C6C0003202B61A65EB03055B084FEA32024FF4FB
:10C6D00080104FF4002CB6EB020E75EB030E22BF58
:10C6E000B61A754640EA0C005B084FEA3202B6EB18
:10C6F000020E75EB030E22BFB61A754640EA5C00C7
:10C700005B084FEA3202B6EB020E75EB030E22BF56
:10C71000B61A754640EA9C005B084FEA3202B6EB57
:10C72000020E75EB030E22BFB61A754640EADC0016
:10C7300055EA060E18D04FEA051545EA16754FEA78
:10C7400006164FEAC30343EA52734FEAC2025FEA96
:10C750001C1CC0D111F4801F0BD141EA00014FF025
:10C7600000004FF0004CB6E711F4801F04BF0143F6
:10C770000020B4F1FD0C88BFBCF5E06F3FF6AFAE12
:10C78000B5EB030C04BFB6EB020C5FEA500C50F1A2
:10C79000000041EB045170BD0EF0004E4EEA113125
:10C7A00014EB5C04C2BFD4EB0C0541EA045170BD2C
:10C7B00041F480114FF0000E013C90E645EA060E70
:10C7C0008DE60CEA135594EA0C0F08BF95EA0C0F9E
:10C7D0003FF43BAF94EA0C0F0AD150EA01347FF4E6
:10C7E00034AF95EA0C0F7FF425AF104619462CE7BD
:10C7F00095EA0C0F06D152EA03353FF4FDAE104620
:10C80000194622E750EA410618BF52EA43067FF470
:10C81000C5AE50EA41047FF40DAF52EA43057FF400
:10C82000EBAE12E700000000000000000000000076
:10C830004FF0FF3C06E000BF4FF0010C02E000BFEC
:10C840004FF0010C4DF804CD4FEA410C7FEA6C5CCF
:10C850004FEA430C18BF7FEA6C5C1BD001B050EA72
:10C86000410C0CBF52EA430C91EA030F02BF90EA5D
:10C87000020F0020704710F1000F91EA030F58BF1C
:10C88000994208BF90422CBFD8176FEAE37040F07E
:10C89000010070474FEA410C7FEA6C5C02D150EA1C
:10C8A000013C07D14FEA430C7FEA6C5CD6D152EAD7
:10C8B000033CD3D05DF8040B704700BF844610469C
:10C8C00062468C461946634600E000BF01B5FFF79B
:10C8D000B7FF002848BF10F1000F01BD4DF808ED6B
:10C8E000FFF7F4FF0CBF012000205DF808FB00BF3C
:10C8F0004DF808EDFFF7EAFF34BF012000205DF896
:10C9000008FB00BF4DF808EDFFF7E0FF94BF0120E2
:10C9100000205DF808FB00BF4DF808EDFFF7CEFFE3
:10C9200094BF012000205DF808FB00BF4DF808ED22
:10C93000FFF7C4FF34BF012000205DF808FB00BFF3
:10C940004FEA410C7FEA6C5C02D150EA013C0AD10B
:10C950004FEA430C7FEA6C5C02D152EA033C02D1FD
:10C960004FF0000070474FF00100704700000000DA
:10C970004FEA410212F5001215D211D56FF4787307
:10C98000B3EB625212D94FEAC12343F0004343EAAA
:10C99000505311F0004F23FA02F018BF4042704785
:10C9A0004FF00000704750EA013005D111F000400F
:10C9B00008BF6FF0004070474FF00000704700BFA5
:10C9C0004FEA4102B2F1E04324BFB3F5001CDCF1B1
:10C9D000FE5C0DD901F0004C4FEAC0024CEA5070E9
:10C9E000B2F1004F40EB830008BF20F00100704718
:10C9F00011F0804F21D113F13872BCBF01F000401B
:10CA0000704741F480114FEA5252C2F11802C2F14C
:10CA1000200C10FA0CF320FA02F018BF40F00100CD
:10CA20004FEAC1234FEAD32303FA0CFC40EA0C007F
:10CA300023FA02F34FEA4303CCE77FEA625307D1BC
:10CA400050EA01331EBF4FF0FE4040F440007047F3
:10CA500001F0004040F0FE4040F40000704700BF8D
:10CA600007EE900AF5EEC07AF1EE10FA01D400F06C
:10CA700027B808B580F0004000F022F8404261EB92
:10CA8000410108BD0000000000000000000000009F
:10CA900038B50022002304460D46FFF729FF28B9C8
:10CAA00020462946BDE8384000F032B8204605F15E
:10CAB000004100F02DF8404261EB410138BD00BF5C
:10CAC000D0B5FFF741FC00220D4B06460F46FFF79D
:10CAD00097FC00F045F80446FFF714FC0022094BD0
:10CAE000FFF78EFC02460B4630463946FFF7CCFA7C
:10CAF00000F036F80022234610431946D0BD00BF8F
:10CB00000000F03D0000F0410000000000000000C7
:10CB1000D0B500220D4B06460F46FFF771FC00F022
:10CB20001FF80446FFF7EEFB0022094BFFF768FCF5
:10CB300002460B4630463946FFF7A6FA00F010F8D9
:10CB40000022234610431946D0BD00BF0000F03D2F
:10CB50000000F041000000000000000000000000A4
:10CB60004A0011D212F5001211D20DD56FF478736C
:10CB7000B3EB62520ED44FEAC12343F0004343EAC1
:10CB8000505323FA02F070474FF00000704750EA0C
:10CB9000013002D14FF0FF3070474FF00000704776
:10CBA00072B6334880F3098840F20000CCF20000EE
:10CBB0004EF63471CEF200010860BFF34F8FBFF321
:10CBC0006F8F40F20000C0F2F0004EF68851CEF2B6
:10CBD00000010860BFF34F8FBFF36F8F4FF000006D
:10CBE000E1EE100A4EF63C71CEF20001086006201C
:10CBF00080F31488BFF36F8F4BF03AFD4CF050FF79
:10CC00004FF055301B491C4A91423CBF41F8040B80
:10CC1000FAE71A49164A91423CBF41F8040BFAE779
:10CC20001749184A184B9A423EBF51F8040B42F874
:10CC3000040BF8E700201549154A91423CBF41F822
:10CC4000040BFAE74BF01CFD124C134DAC4203DA17
:10CC500054F8041B8847F9E704F062FA0F4C104DB2
:10CC6000AC4203DA54F8041B8847F9E74BF010BDD7
:10CC70000010002000000020000800200008002014
:10CC8000C07B0708001000203C1F0020401F002030
:10CC900090AC012000C0000808C0000808C00008CF
:10CCA0000CC00008000000000000000000000000B0
:10CCB0002DE9F04F2DED108AC1F80CD0D0F80CD032
:10CCC000BDEC108ABDE8F08F62B62846A047002070
:10CCD0004CF09EF84BF0A4FF4EF60453CEF2000346
:10CCE0004FF080521A6062B6FEE7000000000000BC
:10CCF00080F0004002E000BF81F0004142001FBF11
:10CD00005FEA410392EA030F7FEA226C7FEA236C19
:10CD10006AD04FEA1262D2EB1363C1BFD21841400E
:10CD200048404140B8BF5B42192B88BF704710F0A4
:10CD3000004F40F4000020F07F4018BF404211F047
:10CD4000004F41F4000121F07F4118BF494292EAAF
:10CD5000030F3FD0A2F1010241FA03FC10EB0C00DB
:10CD6000C3F1200301FA03F100F0004302D5494268
:10CD700060EB4000B0F5000F13D3B0F1807F06D315
:10CD800040084FEA310102F10102FE2A51D2B1F10D
:10CD9000004F40EBC25008BF20F0010040EA030002
:10CDA0007047490040EB000010F4000FA2F10102AF
:10CDB000EDD1B0FA80FCACF1080CB2EB0C0200FA39
:10CDC0000CF0AABF00EBC25052421843BCBFD04087
:10CDD0001843704792F0000F81F4000106BF80F401
:10CDE00000000132013BB5E74FEA41037FEA226CC4
:10CDF00018BF7FEA236C21D092EA030F04D092F08F
:10CE0000000F08BF0846704790EA010F1CBF0020C2
:10CE1000704712F07F4F04D1400028BF40F000401F
:10CE2000704712F100723CBF00F50000704700F03F
:10CE3000004343F0FE4040F4000070477FEA226266
:10CE400016BF08467FEA23630146420206BF5FEA37
:10CE5000412390EA010F40F4800070474FF0000337
:10CE600004E000BF10F0004348BF40425FEA000CFE
:10CE700008BF704743F0964301464FF000001CE0A6
:10CE800050EA010208BF70474FF000030AE000BFFC
:10CE900050EA010208BF704711F0004302D540423A
:10CEA00061EB41015FEA010C02BF844601460020AC
:10CEB00043F0B64308BFA3F18053A3F50003BCFAC7
:10CEC0008CF2083AA3EBC25310DB01FA02FC634474
:10CED00000FA02FCC2F12002BCF1004F20FA02F27B
:10CEE00043EB020008BF20F00100704702F120026E
:10CEF00001FA02FCC2F1200250EA4C0021FA02F2CF
:10CF000043EB020008BF20EADC707047000000001D
:10CF10007BB972B90029BEBF00204FF0004106E086
:10CF200008BF00281CBF6FF000414FF0FF3000F039
:10CF3000BFB9ADF1080C6DE904CE002909DB002B67
:10CF40001ADB00F04DF8DDF804E0DDE9022304B05F
:10CF50007047404261EB4101002B1BDB00F040F8C1
:10CF6000DDF804E0DDE9022304B0404261EB410159
:10CF7000524263EB43037047524263EB430300F0BA
:10CF80002FF8DDF804E0DDE9022304B0404261EB54
:10CF900041017047524263EB430300F021F8DDF892
:10CFA00004E0DDE9022304B0524263EB430370471F
:10CFB00053B94AB9002908BF00281CBF4FF0FF3100
:10CFC0004FF0FF3000F074B9ADF1080C6DE904CEFC
:10CFD00000F006F8DDF804E0DDE9022304B0704754
:10CFE0002DE9F047089E04468846002B4BD18A4223
:10CFF000154667D9B2FA82F24AB1C2F1200701FAA6
:10D0000002F320FA07F7954047EA030894404FEAF5
:10D01000154E230CB8FBFEF71FFA85FC0EFB178894
:10D0200043EA084307FB0CF1994209D9EB1807F1D1
:10D03000FF3080F01B81994240F21881023F2B445F
:10D040005B1AA4B2B3FBFEF00EFB103344EA0344B8
:10D0500000FB0CFCA44509D92C1900F1FF3380F02A
:10D060000781A44540F2048102382C4440EA07407D
:10D07000A4EB0C0400271EB1D4400023C6E90043F2
:10D080003946BDE8F0878B4209D9002E00F0EB80CD
:10D090000027C6E9000138463946BDE8F087B3FAF3
:10D0A00083F7002F47D18B4202D3824200F2FA80ED
:10D0B000841A61EB030301209846002EE0D0C6E9F4
:10D0C0000048DDE702B9FFDEB2FA82F2002A40F042
:10D0D0008F80491B4FEA154E1FFA85F80127B1FBD7
:10D0E000FEFC230C0EFB1C1143EA014308FB0CF170
:10D0F000994207D9EB180CF1FF3002D2994200F2A5
:10D10000CD808446591AA3B2B1FBFEF00EFB101479
:10D1100043EA044408FB00F8A04507D92C1900F1A4
:10D12000FF3302D2A04500F2B6801846A4EB0804F3
:10D1300040EA0C409FE7C7F1200CBB4022FA0CFEEE
:10D140004EEA030E01FA07F420FA0CF521FA0CF36B
:10D150004FEA1E482543B3FBF8F92C0C08FB1933A2
:10D160001FFA8EFA44EA034309FB0AF49C4202FACE
:10D1700007F200FA07F10BD91EEB030309F1FF30A8
:10D1800080F087809C4240F28480A9F102097344B8
:10D190001B1BADB2B3FBF8F008FB103345EA0344A8
:10D1A00000FB0AFAA24508D91EEB040400F1FF3384
:10D1B0006BD2A24569D90238744440EA0940A0FB09
:10D1C0000289A4EB0A044C45C2464B4654D351D0C5
:10D1D000002E69D0B1EB0A0564EB030404FA0CFCE1
:10D1E000FD40FC404CEA0505C6E90054002747E72E
:10D1F000C2F1200320FA03F7954001FA02F021FA68
:10D2000003F34FEA154E3843010CB3FBFEF71FFA48
:10D2100085F80EFB173341EA034107FB08F38B4205
:10D2200004FA02F407D9691807F1FF3C2FD28B42A8
:10D230002DD9023F2944CB1A81B2B3FBFEF00EFB7D
:10D24000103341EA034100FB08F38B4207D9691808
:10D2500000F1FF3C17D28B4215D902382944C91A74
:10D2600040EA07473BE73746304609E70746E7E627
:10D270001846FBE64145ABD2B8EB020A69EB0E0259
:10D2800001381346A4E76046E9E7184695E7674684
:10D29000D1E781467CE702382C4447E7ACF1020C29
:10D2A0002B442FE7384608E73746E9E60000000040
:10D2B000704700BF000000000000000000000000F8
:10D2C000844641EA000313F003036DD1403A41D391
:10D2D00051F8043B40F8043B51F8043B40F8043B50
:10D2E00051F8043B40F8043B51F8043B40F8043B40
:10D2F00051F8043B40F8043B51F8043B40F8043B30
:10D3000051F8043B40F8043B51F8043B40F8043B1F
:10D3100051F8043B40F8043B51F8043B40F8043B0F
:10D3200051F8043B40F8043B51F8043B40F8043BFF
:10D3300051F8043B40F8043B51F8043B40F8043BEF
:10D3400051F8043B40F8043B51F8043B40F8043BDF
:10D35000403ABDD2303211D351F8043B40F8043B7F
:10D3600051F8043B40F8043B51F8043B40F8043BBF
:10D3700051F8043B40F8043B103AEDD20C3205D38F
:10D3800051F8043B40F8043B043AF9D2043208D087
:10D39000D2071CBF11F8013B00F8013B01D30B88F9
:10D3A00003806046704700BF082A13D38B078DD0D7
:10D3B00010F003038AD0C3F10403D21ADB071CBFA9
:10D3C00011F8013B00F8013B80D331F8023B20F813
:10D3D000023B7BE7043AD9D3013A11F8013B00F84C
:10D3E000013BF9D20B7803704B7843708B788370D4
:10D3F00060467047000000000000000000000000D0
:10D40000EC46A0E8F05F4FF000007047B0E8F05F36
:10D41000E546080008BF0120704700BF000000007B
:10D42000A2EB0300704700BF02780B78012A28BFE7
:10D430009A42F5D16DE9044540EA0104CDE902675D
:10D440006FF0000C4FEA447212B380EA010414F04A
:10D45000070F6AD100F0070420F0070004F003056D
:10D4600021F007014FEAC505F0E8042314F0040F8A
:10D47000F1E804670CFA05F462EA040266EA0406BD
:10D480000AD063EA0403624667EA0407664603E0DB
:10D49000F0E80423F1E8046782FA4CF582EA060416
:10D4A000A4FA8CF46CBB83FA4CF583EA0705A5FA61
:10D4B0008CF595B950E9022351E9026782FA4CF5DF
:10D4C00082EA0604A4FA8CF483FA4CF583EA070591
:10D4D000A5FA8CF52543DBD09CB92DBAB5FA85F4B5
:10D4E00024F0070427FA04F1DDE9026723FA04F3C4
:10D4F00003F0FF0001F0FF01FDE80445A0EB01008F
:10D50000704724BAB4FA84F424F0070426FA04F12C
:10D51000DDE9026722FA04F202F0FF0001F0FF01E8
:10D52000FDE80445A0EB0100704714F0030F3CD167
:10D5300010F0030428D150F8082B51F8083B82FA68
:10D540004CF582EA0305A5FA8CF55DB950F8042C78
:10D5500051F8043C82FA4CF582EA0305A5FA8CF5F1
:10D56000002DE8D02DBAB5FA85F424F0070423FA8B
:10D5700004F122FA04F202F0FF0001F0FF01FDE8DD
:10D580000445A0EB010070474FEAC40420F00300FB
:10D5900050F8082B21F0030151F8083B0CFA04F471
:10D5A00062EA040263EA0403C9E710F003041AD034
:10D5B000A1EB040120F00300E40750F8042B06D08F
:10D5C0000FD28B785FFAA2F4E41A06D12BB1CB7894
:10D5D0005FFAB2F4E41A00D11BB920465DF8104B93
:10D5E000704701F1040150F8042BCC0721F003012E
:10D5F00051F8043B48D824D222F07F4482FA4CF5FB
:10D6000094EA1325A5FA8CF50AD165B951F8043BC3
:10D6100084EA0204B4EB036F0ED150F8042BEBE75D
:10D620004FEA132355E035F07F454DD10878FDE8EA
:10D630000445C0F1000070474FEA126203F0FF0397
:10D6400047E002EA1C4482FA4CF594EA1345A5FA35
:10D650008CF50AD165B951F8043B84EA0204B4EBB5
:10D66000034F0CD150F8042BEBE74FEA134330E0A3
:10D6700015EA1C4528D10B884FEA124229E04FEAEF
:10D68000124203EA1C4324E002F0FF0482FA4CF544
:10D6900094EA1365A5FA8CF50AD165B951F8043BF3
:10D6A00084EA0204B4EB032F09D150F8042BEBE712
:10D6B0004FEA13630DE015F0FF0F05D10B684FEA39
:10D6C000122223F07F4304E04FF00000FDE8044500
:10D6D000704712BA1BBA82FA4CF482EA0304A4FA25
:10D6E0008CF5B5FA85F402FA04F203FA04F34FEA72
:10D6F0001260FDE80445A0EB1360704700000000D5
:10D7000090F800F06DE9024520F007016FF0000C81
:10D7100010F0070491F820F040F049804FF0000429
:10D720006FF00700D1E9002391F840F000F1080004
:10D7300082FA4CF2A4FA8CF283FA4CF3A2FA8CF33C
:10D740004BBBD1E9022382FA4CF200F10800A4FAA3
:10D750008CF283FA4CF3A2FA8CF3E3B9D1E90423F7
:10D7600082FA4CF200F10800A4FA8CF283FA4CF32E
:10D77000A2FA8CF37BB9D1E9062301F1200182FAE8
:10D780004CF200F10800A4FA8CF283FA4CF3A2FAEE
:10D790008CF3002BC6D0002A04BF04301A4612BAFC
:10D7A000B2FA82F2FDE8024500EBD2007047D1E9FF
:10D7B000002304F00305C4F100004FEAC50514F08E
:10D7C000040F91F840F00CFA05F562EA05021CBF5F
:10D7D00063EA050362464FF00004A9E70000000079
:10D7E00001F0FF01102A2BDB10F0070F08D010F812
:10D7F000013B013A8B422DD010F0070F42B3F6D116
:10D80000F0B441EA012141EA014122F007047FF02E
:10D8100000070023F0E80256083C85EA010586EA85
:10D82000010685FA47F5A3FA87F586FA47F6A5FAC1
:10D8300087F68EB9EED1F0BC01F0FF0102F00702CD
:10D8400032B110F8013B013A83EA010313B1F8D178
:10D850000020704701387047002D06BF3546033859
:10D86000073815F0010F07D1013015F4807F02BF92
:10D87000013015F4C03F0130F0BC0138704700BFE3
:10D8800053EC112B2DE9F04723F0004E5EEA02061F
:10D8900051EC100B24D0854E21F00048B04589464C
:10D8A0001EDC56421643824F4EEAD676BE4211EE39
:10D8B000104A15D8F0451D4611EE10CA10EE10AAF8
:10D8C00010EE107A01F0004617DC13DB904211D302
:10D8D00013D1784BF60F03EBC60393ED000B07E073
:10D8E000FEF78EFD02460B46FEF7B4FE41EC100B30
:10D8F000BDE8F08741EC100BFAE7B8F5801F3BDB81
:10D900004FEA2852A2F2FF32BEF5801F80F29080CB
:10D91000BEF1000F40F0A080002C2346664904DDD4
:10D920005B00002B01F1FF31FADC644B9A4271DBA2
:10D93000C9F3130343F48013604881425CDBC5F3F1
:10D94000130444F48014501A07E052EA050321D06E
:10D95000EB0F03EB42036F0001381A1BA7EB0C051A
:10D96000F8B1674538BF02F1FF32002AEDDAFA0F4D
:10D9700002EB43037F00EFE7B8F1000F5DD1BAF18E
:10D98000000F53464C4ABFDD5B00002B02F1FF3213
:10D99000FADCB9E7474BF60F03EBC60696ED000B32
:10D9A000A6E7674538BF02F1FF32002ABCBF3D46FB
:10D9B0001A4652EA0503EDD04148824208DCEB0FDB
:10D9C00003EB4202824201F1FF314FEA4505F6DDE9
:10D9D0003A4B99424FDA5B1A142B57DC01F21E4185
:10D9E000DD4002FA01F142FA03F329431E433346B4
:10D9F0000A4643EC102B7BE7401A1F2826DC01F275
:10DA00001E450EFA00FE24FA05F504FA00FC45EA6C
:10DA10000E0498E79F1A1F2F27DC02F21E4308FA14
:10DA200007F82AFA03F30AFA07F743EA080383E739
:10DA30004FEA2E51A1F2FF3177E7204A4FEAC8237F
:10DA40005B00002B02F1FF32FADC5DE71D4D6D1A21
:10DA5000AC404FF0000C76E718494FEACE235B004C
:10DA6000002B01F1FF31FADC5FE7164B9B1A0AFA33
:10DA700003F3002760E7A2F58012164301F2FF319D
:10DA800046EA01532A4643EC102B31E71F2B07DCF3
:10DA900001F21E4102FA01F125FA03F21143A6E751
:10DAA000084B591A42FA01F1A1E700BFFFFFEF7FCF
:10DAB0000000F07FA0C20608EDFBFFFF02FCFFFFA5
:10DAC000FFFF0F00E2FBFFFF00000000000000006E
:10DAD00008B510EE102A22F00043B3F17E5F2DED61
:10DAE000028B49D041DCB3F17C5F50DAB3F10C5FBB
:10DAF00040F3A08020EE007ADFED731ADFED732A89
:10DB0000DFED733A9FED732A9FED733ADFED735AA1
:10DB10009FED734ADFED734A9FED735ADFED736A31
:10DB20009FED736ADFED737AE7EE212AA7EE023AE2
:10DB3000E2EE873AA3EE074AE3EE875AA4EE075ACD
:10DB4000E5EE874AF7EE005AE4EE876AE5EE075AFB
:10DB500026EE877AC7EE256AB0EE467AA0EE667AA0
:10DB600030EE470A37EEC00A03E070EE407A87EEE7
:10DB7000A70ABDEC028B08BDBDEC028B9FED5E0ACF
:10DB8000DFED5E7A002AD8BFB0EE670A08BD002A32
:10DB900053DBF7EE008A38EEC00AB6EE008A20EEBC
:10DBA000088AB0EE480A01F0ABF9DFED477A9FED45
:10DBB000473A9FED474ADFED472ADFED473A9FEDB1
:10DBC000475ADFED474A9FED476ADFED475A9FED21
:10DBD000477AA8EE273AE8EE223AA3EE084AE3EEA7
:10DBE000884AA4EE085A10EE103AA5EE086A23F40B
:10DBF0007F6323F00F03E4EE885A07EE903AA6EE17
:10DC0000087AE5EE888AF0EE485AE7EEE75A27EE02
:10DC1000088A30EE276AF0EE406A88EE287ABDEC7A
:10DC2000028B85EE860AA6EE870A30EE270A30EED2
:10DC3000000A08BD9FED320A9BE7B7EE007A30EE8E
:10DC4000070AF6EE007A60EE277ADFED1F2ADFED95
:10DC50001F3ADFED1F4A9FED1F3A9FED1F4ADFED90
:10DC60001F5A9FED1F5ADFED1F6A9FED1F6A9FED40
:10DC70001F8AE7EEA23AA7EE834AE3EEA74AA4EE94
:10DC8000275AE4EEA75AA5EE276AE5EEA76AA6EEA4
:10DC9000277AA6EEA78AF0EE478A28EE278AB0EE0A
:10DCA000670A01F02DF9C8EE286A9FED167ADFEDBC
:10DCB000167AA0EE267AF0EE006A37EE000AE0EE61
:10DCC000667AB0EE670A54E708EF1138047F4F3ADE
:10DCD000461124BD2EC69D3D613330BFA80A4E3E7D
:10DCE0002D57014090B0A6BE39D119C0ABAA2A3E2B
:10DCF0006821A233DA0FC93F00000000DB0F494062
:10DD0000DB0FC93F6821A2B3DA0F494000000000D1
:10DD100038B510EE105A25F00044B4F17E5F2DEDB9
:10DD2000048B68D060DCB4F17C5F0DDAB4F1485F3D
:10DD30006EDADFED647A70EE277AB7EE007AF4EEF1
:10DD4000C77AF1EE10FA53DC01F0FAFFB7EE007A71
:10DD500037EE400AB6EE008A20EE088ADFED5A2A36
:10DD6000DFED5A3A9FED5A3ADFED5A4A9FED5A4A93
:10DD7000DFED5A5A9FED5A5A9FED5A6ADFED5A6A03
:10DD8000DFED5A7AE8EE223AA8EE034AE3EE884A3B
:10DD9000A4EE085AE4EE885AE5EE086AA5EE886A11
:10DDA000A6EE887AE6EE087AB0EE480AB0EE479A18
:10DDB00067EE888A01F0A4F84D4B9C425BDDC8EE0B
:10DDC000896A9FED4C7ADFED4C7AA0EE260AF0EEE0
:10DDD000006AA0EE267A37EEC70ABDEC048B002D50
:10DDE000D8BFB1EE400A38BD70EE407A87EEA70A80
:10DDF000BDEC048B38BDDFED417A9FED3F7A60EEDC
:10DE0000277ABDEC048BE0EE077AB0EE670A38BDE6
:10DE100060EE007ADFED2C2ADFED2C3ADFED2D4AA3
:10DE20009FED2B3A9FED2C4ADFED2C6A9FED2C5A8B
:10DE3000DFED2C5A9FED2C6A9FED2C7AE7EEA23A8B
:10DE4000BDEC048BE3EEA74AA7EE834AE4EEA76A93
:10DE5000A4EE275AE6EEA75AA5EE276AA5EEA77A02
:10DE6000F7EE006AE6EE276A67EE277A87EEA67A73
:10DE7000A0EE070A38BD10EE103A23F47F6323F0BA
:10DE80000F0307EE903AB1EE676AA6EE278A77EEA7
:10DE9000807AC8EE895A88EE275A9FED187ADFED0E
:10DEA000187AF0EE006AA5EE667A30EE000AB0EE5F
:10DEB000675AA6EE265A90EE257A37EE450A37EED7
:10DEC000C00A8AE7CAF2497108EF1138047F4F3A55
:10DED0002EC69D3D461124BD613330BFA80A4E3E7B
:10DEE0002D57014090B0A6BE39D119C0ABAA2A3E29
:10DEF0009999793F2EBD3B33DB0FC93F2EBD3BB314
:10DF0000DB0F493F0000000000000000000000009F
:10DF100010B582B0CDED010A019B23F00042B2F1B1
:10DF2000FF4FF0EE407A18DC10EE100A20F00041AE
:10DF3000B1F1FF4F11DCB3F17E5F3DD09C1704F0CF
:10DF4000020444EAD07471B9022C4AD09FED440A0D
:10DF5000032C18BFB0EE670A03E09DED017A37EE9F
:10DF6000270A02B010BD42B99FED3E0ADFED3E7AAE
:10DF70000028B8BFB0EE670AF3E7B2F1FF4F20D038
:10DF8000B1F1FF4F30D08A1AD2153C2A35DC002B74
:10DF900036DA3C3234DA9FED350A012C42D0022CBD
:10DFA00037D0002CDDD0DFED327A9FED327A70EE83
:10DFB000277A37EEC70AD4E702B0BDE8104001F077
:10DFC00047BDB1F1FF4F34D0022C0AD0032C3DD015
:10DFD000DFED297A9FED250A012C08BFB0EE670A14
:10DFE000BFE79FED240ABCE7DFED1E7A9FED1E0A16
:10DFF0000028A8BFB0EE670AB3E79FED1A0ACCE786
:10E000009DED010A87EE800A01F09AFE01F020FDE5
:10E01000C3E7DFED177A9FED177A70EE277A37EEB8
:10E02000670A9EE710EE103A03F1004300EE103A43
:10E0300097E7022C10D0032C0BD0DFED107A9FED68
:10E04000100A012C08BFB0EE670A8AE79FED040AA8
:10E0500087E79FED0C0A84E79FED0B0A81E700BF7D
:10E06000DB0F49C0DB0FC93FDB0FC9BF0000000059
:10E070002EBDBB33DB0F494000000080DB0F49BFE2
:10E08000DB0F493FE4CB16C0E4CB16400000000094
:10E0900010EE103A23F00042B2F1FF4F2AD84FEAB7
:10E0A000D3712AD0554883422EDC002B6FDB544BB2
:10E0B0009A422ED9534B9A4240F28A80524B9FED9E
:10E0C000537A9FED536ADFED536A03EB8101D1ED83
:10E0D000007AE0EE077AF0EE404AFDEEE77AB8EE1D
:10E0E000E77A17EE901AE7EE464A27EE267A34EEE4
:10E0F000C70A12E030EE000A7047DFED477A0029C8
:10E1000018BFB0EE670A70479FED440A20EE000A80
:10E110007047B2F1465F4DD3002160EE007A9FED6B
:10E12000404A9FED405ADFED405A9FED406ADFEDD7
:10E13000406AA7EE845AE5EE275AA5EEA76AE6EEF6
:10E14000276AB0EE406AA6EEE76AF0EE467A20EE65
